{
  "_format": "hh-sol-artifact-1",
  "contractName": "Upload",
  "sourceName": "contracts/Upload.sol",
  "abi": [
    {
      "inputs": [
        {
          "internalType": "address",
          "name": "",
          "type": "address"
        },
        {
          "internalType": "uint256",
          "name": "",
          "type": "uint256"
        }
      ],
      "name": "accessList",
      "outputs": [
        {
          "internalType": "address",
          "name": "user",
          "type": "address"
        },
        {
          "internalType": "bool",
          "name": "access",
          "type": "bool"
        }
      ],
      "stateMutability": "view",
      "type": "function"
    },
    {
      "inputs": [
        {
          "internalType": "address",
          "name": "_user",
          "type": "address"
        },
        {
          "internalType": "string",
          "name": "url",
          "type": "string"
        }
      ],
      "name": "add",
      "outputs": [],
      "stateMutability": "nonpayable",
      "type": "function"
    },
    {
      "inputs": [
        {
          "internalType": "address",
          "name": "_user",
          "type": "address"
        },
        {
          "internalType": "string",
          "name": "text",
          "type": "string"
        }
      ],
      "name": "addText",
      "outputs": [],
      "stateMutability": "nonpayable",
      "type": "function"
    },
    {
      "inputs": [
        {
          "internalType": "address",
          "name": "user",
          "type": "address"
        }
      ],
      "name": "allow",
      "outputs": [],
      "stateMutability": "nonpayable",
      "type": "function"
    },
    {
      "inputs": [
        {
          "internalType": "address",
          "name": "user",
          "type": "address"
        }
      ],
      "name": "disallow",
      "outputs": [],
      "stateMutability": "nonpayable",
      "type": "function"
    },
    {
      "inputs": [
        {
          "internalType": "address",
          "name": "_user",
          "type": "address"
        }
      ],
      "name": "display",
      "outputs": [
        {
          "internalType": "string[]",
          "name": "",
          "type": "string[]"
        }
      ],
      "stateMutability": "view",
      "type": "function"
    },
    {
      "inputs": [
        {
          "internalType": "address",
          "name": "_user",
          "type": "address"
        }
      ],
      "name": "displayText",
      "outputs": [
        {
          "internalType": "string[]",
          "name": "",
          "type": "string[]"
        }
      ],
      "stateMutability": "view",
      "type": "function"
    },
    {
      "inputs": [],
      "name": "shareAccess",
      "outputs": [
        {
          "components": [
            {
              "internalType": "address",
              "name": "user",
              "type": "address"
            },
            {
              "internalType": "bool",
              "name": "access",
              "type": "bool"
            }
          ],
          "internalType": "struct Upload.Access[]",
          "name": "",
          "type": "tuple[]"
        }
      ],
      "stateMutability": "view",
      "type": "function"
    }
  ],
  "bytecode": "0x608060405234801561001057600080fd5b5061179e806100206000396000f3fe608060405234801561001057600080fd5b50600436106100885760003560e01c8063a9ed9cb81161005b578063a9ed9cb814610126578063bc8bef8114610142578063eb39113f14610160578063ff9913e81461019057610088565b8063018f16aa1461008d57806321afb506146100a957806336d6da55146100d957806370c2b419146100f5575b600080fd5b6100a760048036038101906100a291906111f2565b6101ac565b005b6100c360048036038101906100be9190611252565b61022c565b6040516100d091906113da565b60405180910390f35b6100f360048036038101906100ee91906111f2565b610443565b005b61010f600480360381019061010a9190611432565b610687565b60405161011d92919061149c565b60405180910390f35b610140600480360381019061013b9190611252565b6106f1565b005b61014a610914565b60405161015791906115c1565b60405180910390f35b61017a60048036038101906101759190611252565b610a1d565b60405161018791906113da565b60405180910390f35b6101aa60048036038101906101a59190611252565b610c33565b005b600160008473ffffffffffffffffffffffffffffffffffffffff1673ffffffffffffffffffffffffffffffffffffffff168152602001908152602001600020828290918060018154018082558091505060019003906000526020600020016000909192909192909192909192509190610226929190611082565b50505050565b60603373ffffffffffffffffffffffffffffffffffffffff168273ffffffffffffffffffffffffffffffffffffffff1614806102ee5750600260008373ffffffffffffffffffffffffffffffffffffffff1673ffffffffffffffffffffffffffffffffffffffff16815260200190815260200160002060003373ffffffffffffffffffffffffffffffffffffffff1673ffffffffffffffffffffffffffffffffffffffff16815260200190815260200160002060009054906101000a900460ff165b61032d576040517f08c379a000000000000000000000000000000000000000000000000000000000815260040161032490611640565b60405180910390fd5b600160008373ffffffffffffffffffffffffffffffffffffffff1673ffffffffffffffffffffffffffffffffffffffff168152602001908152602001600020805480602002602001604051908101604052809291908181526020016000905b828210156104385783829060005260206000200180546103ab9061168f565b80601f01602080910402602001604051908101604052809291908181526020018280546103d79061168f565b80156104245780601f106103f957610100808354040283529160200191610424565b820191906000526020600020905b81548152906001019060200180831161040757829003601f168201915b50505050508152602001906001019061038c565b505050509050919050565b6000808473ffffffffffffffffffffffffffffffffffffffff1673ffffffffffffffffffffffffffffffffffffffff1681526020019081526020016000208282909180600181540180825580915050600190039060005260206000200160009091929091929091929091925091906104bc929190611082565b508273ffffffffffffffffffffffffffffffffffffffff168373ffffffffffffffffffffffffffffffffffffffff161415610682576001600260003373ffffffffffffffffffffffffffffffffffffffff1673ffffffffffffffffffffffffffffffffffffffff16815260200190815260200160002060008573ffffffffffffffffffffffffffffffffffffffff1673ffffffffffffffffffffffffffffffffffffffff16815260200190815260200160002060006101000a81548160ff021916908315150217905550600360003373ffffffffffffffffffffffffffffffffffffffff1673ffffffffffffffffffffffffffffffffffffffff16815260200190815260200160002060405180604001604052808573ffffffffffffffffffffffffffffffffffffffff168152602001600115158152509080600181540180825580915050600190039060005260206000200160009091909190915060008201518160000160006101000a81548173ffffffffffffffffffffffffffffffffffffffff021916908373ffffffffffffffffffffffffffffffffffffffff16021790555060208201518160000160146101000a81548160ff02191690831515021790555050505b505050565b600360205281600052604060002081815481106106a357600080fd5b90600052602060002001600091509150508060000160009054906101000a900473ffffffffffffffffffffffffffffffffffffffff16908060000160149054906101000a900460ff16905082565b6000600260003373ffffffffffffffffffffffffffffffffffffffff1673ffffffffffffffffffffffffffffffffffffffff16815260200190815260200160002060008373ffffffffffffffffffffffffffffffffffffffff1673ffffffffffffffffffffffffffffffffffffffff16815260200190815260200160002060006101000a81548160ff02191690831515021790555060005b600360003373ffffffffffffffffffffffffffffffffffffffff1673ffffffffffffffffffffffffffffffffffffffff16815260200190815260200160002080549050811015610910578173ffffffffffffffffffffffffffffffffffffffff16600360003373ffffffffffffffffffffffffffffffffffffffff1673ffffffffffffffffffffffffffffffffffffffff168152602001908152602001600020828154811061083b5761083a6116c1565b5b9060005260206000200160000160009054906101000a900473ffffffffffffffffffffffffffffffffffffffff1673ffffffffffffffffffffffffffffffffffffffff1614156108fd576000600360003373ffffffffffffffffffffffffffffffffffffffff1673ffffffffffffffffffffffffffffffffffffffff16815260200190815260200160002082815481106108d8576108d76116c1565b5b9060005260206000200160000160146101000a81548160ff0219169083151502179055505b80806109089061171f565b915050610789565b5050565b6060600360003373ffffffffffffffffffffffffffffffffffffffff1673ffffffffffffffffffffffffffffffffffffffff168152602001908152602001600020805480602002602001604051908101604052809291908181526020016000905b82821015610a14578382906000526020600020016040518060400160405290816000820160009054906101000a900473ffffffffffffffffffffffffffffffffffffffff1673ffffffffffffffffffffffffffffffffffffffff1673ffffffffffffffffffffffffffffffffffffffff1681526020016000820160149054906101000a900460ff16151515158152505081526020019060010190610975565b50505050905090565b60603373ffffffffffffffffffffffffffffffffffffffff168273ffffffffffffffffffffffffffffffffffffffff161480610adf5750600260008373ffffffffffffffffffffffffffffffffffffffff1673ffffffffffffffffffffffffffffffffffffffff16815260200190815260200160002060003373ffffffffffffffffffffffffffffffffffffffff1673ffffffffffffffffffffffffffffffffffffffff16815260200190815260200160002060009054906101000a900460ff165b610b1e576040517f08c379a0000000000000000000000000000000000000000000000000000000008152600401610b1590611640565b60405180910390fd5b6000808373ffffffffffffffffffffffffffffffffffffffff1673ffffffffffffffffffffffffffffffffffffffff168152602001908152602001600020805480602002602001604051908101604052809291908181526020016000905b82821015610c28578382906000526020600020018054610b9b9061168f565b80601f0160208091040260200160405190810160405280929190818152602001828054610bc79061168f565b8015610c145780601f10610be957610100808354040283529160200191610c14565b820191906000526020600020905b815481529060010190602001808311610bf757829003601f168201915b505050505081526020019060010190610b7c565b505050509050919050565b6001600260003373ffffffffffffffffffffffffffffffffffffffff1673ffffffffffffffffffffffffffffffffffffffff16815260200190815260200160002060008373ffffffffffffffffffffffffffffffffffffffff1673ffffffffffffffffffffffffffffffffffffffff16815260200190815260200160002060006101000a81548160ff02191690831515021790555060011515600460003373ffffffffffffffffffffffffffffffffffffffff1673ffffffffffffffffffffffffffffffffffffffff16815260200190815260200160002060008373ffffffffffffffffffffffffffffffffffffffff1673ffffffffffffffffffffffffffffffffffffffff16815260200190815260200160002060009054906101000a900460ff1615151415610eee5760005b600360003373ffffffffffffffffffffffffffffffffffffffff1673ffffffffffffffffffffffffffffffffffffffff16815260200190815260200160002080549050811015610ee8578173ffffffffffffffffffffffffffffffffffffffff16600360003373ffffffffffffffffffffffffffffffffffffffff1673ffffffffffffffffffffffffffffffffffffffff1681526020019081526020016000208281548110610e1357610e126116c1565b5b9060005260206000200160000160009054906101000a900473ffffffffffffffffffffffffffffffffffffffff1673ffffffffffffffffffffffffffffffffffffffff161415610ed5576001600360003373ffffffffffffffffffffffffffffffffffffffff1673ffffffffffffffffffffffffffffffffffffffff1681526020019081526020016000208281548110610eb057610eaf6116c1565b5b9060005260206000200160000160146101000a81548160ff0219169083151502179055505b8080610ee09061171f565b915050610d61565b5061107f565b600360003373ffffffffffffffffffffffffffffffffffffffff1673ffffffffffffffffffffffffffffffffffffffff16815260200190815260200160002060405180604001604052808373ffffffffffffffffffffffffffffffffffffffff168152602001600115158152509080600181540180825580915050600190039060005260206000200160009091909190915060008201518160000160006101000a81548173ffffffffffffffffffffffffffffffffffffffff021916908373ffffffffffffffffffffffffffffffffffffffff16021790555060208201518160000160146101000a81548160ff02191690831515021790555050506001600460003373ffffffffffffffffffffffffffffffffffffffff1673ffffffffffffffffffffffffffffffffffffffff16815260200190815260200160002060008373ffffffffffffffffffffffffffffffffffffffff1673ffffffffffffffffffffffffffffffffffffffff16815260200190815260200160002060006101000a81548160ff0219169083151502179055505b50565b82805461108e9061168f565b90600052602060002090601f0160209004810192826110b057600085556110f7565b82601f106110c957803560ff19168380011785556110f7565b828001600101855582156110f7579182015b828111156110f65782358255916020019190600101906110db565b5b5090506111049190611108565b5090565b5b80821115611121576000816000905550600101611109565b5090565b600080fd5b600080fd5b600073ffffffffffffffffffffffffffffffffffffffff82169050919050565b600061115a8261112f565b9050919050565b61116a8161114f565b811461117557600080fd5b50565b60008135905061118781611161565b92915050565b600080fd5b600080fd5b600080fd5b60008083601f8401126111b2576111b161118d565b5b8235905067ffffffffffffffff8111156111cf576111ce611192565b5b6020830191508360018202830111156111eb576111ea611197565b5b9250929050565b60008060006040848603121561120b5761120a611125565b5b600061121986828701611178565b935050602084013567ffffffffffffffff81111561123a5761123961112a565b5b6112468682870161119c565b92509250509250925092565b60006020828403121561126857611267611125565b5b600061127684828501611178565b91505092915050565b600081519050919050565b600082825260208201905092915050565b6000819050602082019050919050565b600081519050919050565b600082825260208201905092915050565b60005b838110156112e55780820151818401526020810190506112ca565b838111156112f4576000848401525b50505050565b6000601f19601f8301169050919050565b6000611316826112ab565b61132081856112b6565b93506113308185602086016112c7565b611339816112fa565b840191505092915050565b6000611350838361130b565b905092915050565b6000602082019050919050565b60006113708261127f565b61137a818561128a565b93508360208202850161138c8561129b565b8060005b858110156113c857848403895281516113a98582611344565b94506113b483611358565b925060208a01995050600181019050611390565b50829750879550505050505092915050565b600060208201905081810360008301526113f48184611365565b905092915050565b6000819050919050565b61140f816113fc565b811461141a57600080fd5b50565b60008135905061142c81611406565b92915050565b6000806040838503121561144957611448611125565b5b600061145785828601611178565b92505060206114688582860161141d565b9150509250929050565b61147b8161114f565b82525050565b60008115159050919050565b61149681611481565b82525050565b60006040820190506114b16000830185611472565b6114be602083018461148d565b9392505050565b600081519050919050565b600082825260208201905092915050565b6000819050602082019050919050565b6114fa8161114f565b82525050565b61150981611481565b82525050565b60408201600082015161152560008501826114f1565b5060208201516115386020850182611500565b50505050565b600061154a838361150f565b60408301905092915050565b6000602082019050919050565b600061156e826114c5565b61157881856114d0565b9350611583836114e1565b8060005b838110156115b457815161159b888261153e565b97506115a683611556565b925050600181019050611587565b5085935050505092915050565b600060208201905081810360008301526115db8184611563565b905092915050565b600082825260208201905092915050565b7f596f7520646f6e74206861766520616363657373000000000000000000000000600082015250565b600061162a6014836115e3565b9150611635826115f4565b602082019050919050565b600060208201905081810360008301526116598161161d565b9050919050565b7f4e487b7100000000000000000000000000000000000000000000000000000000600052602260045260246000fd5b600060028204905060018216806116a757607f821691505b602082108114156116bb576116ba611660565b5b50919050565b7f4e487b7100000000000000000000000000000000000000000000000000000000600052603260045260246000fd5b7f4e487b7100000000000000000000000000000000000000000000000000000000600052601160045260246000fd5b600061172a826113fc565b91507fffffffffffffffffffffffffffffffffffffffffffffffffffffffffffffffff82141561175d5761175c6116f0565b5b60018201905091905056fea2646970667358221220a10ba534d393942a7530882e81e71f82e0b671a32b1012ffe831152100559b1464736f6c63430008090033",
  "linkReferences": {},
  "deployedLinkReferences": {}
}